:100000000C949A030C94E1030C94E1030C94E10327
:100010000C94E1030C94E1030C94E1030C94E103D0
:100020000C94E1030C94E1030C94C4280C949629DD
:100030000C944A1D0C94E1030C94E1030C94E1032D
:100040000C94E1030C94E1030C94E1030C94E103A0
:100050000C94E1030C94B21D0C94E1030C94E103A5
:100060000C94E1030C94E1030C94E1030C94E10380
:100070000C94E1030C94E1030C94E1030C94E10370
:100080000C94E1030C94E1030C94E1030C94E10360
:100090000C94E1030C94E1030C94E1030C94E10350
:1000A0000C94E1030C94E1030C94E103BE09C00934
:1000B000CB09C209C409C609C809CA09CD09CF09B3
:1000C000D109DC09D309D509D709D909DB09DE092A
:1000D0006F126F12A112A112E31203138B148B146F
:1000E00045138B14E613E613571460148B14841411
:1000F000F313F313F313F313F313F313F313F313D0
:10010000F313F313F313F313F313F313F313F313BF
:100110000414111418141F1429141A151A152C1567
:100120002C1523152C152C152C151A151A152815F8
:100130002C152C152815032A2A2A1C2B2A2A1C2B9D
:10014000762A992A1C2BEF2AFE2A0A0025303136FE
:1001500062003A200025303258000A722F632030A6
:100160003132333435363738394142434445460A13
:10017000006D6370323330313720646561747461AF
:10018000636865642121210A006D63703233303168
:10019000372061747461636865642121210A004914
:1001A000001E001F0020002100220029002900233A
:1001B0000024002500260027002E002B0014001A22
:1001C00000080015001700025102531C0018000C13
:1001D00000120013002D00E00004001600070009C3
:1001E000000A00000000000B000D000E000F00339D
:1001F000003400E1001D001B00060019000500018D
:1002000051015111001000360037003800E500E3BD
:1002100000350031002F0030000000000000000019
:10022000005000510052004F00E70000002C002A4F
:10023000004D004A00E2004C004600E6004B004E34
:100240000028002C00000046003A003B003C003D26
:10025000003E003F00400041004200430044004592
:1002600000005C2B00000000000000000000000007
:1002700000000000000000000000000000015CE041
:10028000000000000000000000000000000000006E
:10029000000000000000000000095CE10000000018
:1002A000000000000000000100010000000000004C
:1002B0000000000000125C0000000000000000E2EE
:1002C000000000000000000000000000000000002E
:1002D000000000000029004C00AD00AE00AC00ABF7
:1002E00000A8000000A900AA00E200290000002EDA
:1002F000001E001F00200021002200290000000035
:10030000000000000000000000FD002B0014001A97
:10031000000800150017000100010000000000F0B7
:100320000000000000FE00E00004001600070009C5
:10033000000A00000000000000F200F100F300F9E4
:1003400000FF00E1001D001B000600190005000071
:100350000000000000000000000000FA00000000A3
:1003600000350031002F00300000000000000000C8
:10037000000000000000000000000000002C002A27
:10038000004D004A00E000E200F8000000F600F72F
:1003900000F400F500000044454255473A206469E6
:1003A0007361626C65642E0A0044454255473A20E9
:1003B000656E61626C65642E0A00556E69636F64D8
:1003C0006520696E707574206D6F64652073657447
:1003D00020746F3A2025750A00556E69636F646555
:1003E00020696E707574206D6F646520696E697424
:1003F00020746F3A2025750A000A002530325820F3
:10040000006B6579626F6172645F7265706F7274A0
:100410003A20000A0025303258006B6579626F611E
:1004200072645F7365745F6C65643A200064656C28
:100430005F6B65795F6269743A2063616E2774202F
:1004400064656C3A20253032580A006164645F6B41
:1004500065795F6269743A2063616E277420616414
:10046000643A20253032580A00646F6E652E0A0007
:10047000626F6F746D61676963207363616E3A20A8
:100480002E2E2E2000290A002575002F002575002C
:100490005D280025640020002564002000256400FC
:1004A00020002564007C0025303258006D6F757384
:1004B000656B6579205B62746E7C7820792076208C
:1004C000685D287265702F61636C293A205B006259
:1004D00061636B6C6967687420737465703A20257A
:1004E000750A006261636B6C696768742064697384
:1004F00061626C650A006261636B6C696768742095
:10050000656E61626C650A006261636B6C69676845
:100510007420746F67676C653A2025750A00626104
:10052000636B6C6967687420646563726561736589
:100530003A2025750A006261636B6C6967687420F4
:10054000696E6372656173653A2025750A005B7395
:100550005D004B6579626F617264207374617274BF
:100560002E0A005B575D005B535D005B525D005BD4
:10057000445D005B435D000403300000000E03484F
:10058000006F00740044006F007800000012035AEE
:10059000002E0050002E005A002E004F002E0000AA
:1005A000000403090409025B00030100A0FA090426
:1005B0000000010301010009211101000122400096
:1005C0000705810308000A09040100010300000077
:1005D00009211101000122C0000705820320000A41
:1005E0000904020002030000000921110100012298
:1005F00022000705830320000107050303200001F3
:100600001201100100000008EDFE1DE101000102D1
:1006100003010631FF0974A1010975150026FF00C9
:100620009520750881020976150026FF0095207532
:10063000089102C005010902A10185020901A1007A
:100640000509190129051500250195057501810286
:100650009501750381010501093009311581257F57
:1006600095027508810609381581257F9501750861
:100670008106050C0A38021581257F9501750881D0
:1006800006C0C005010980A10185031601002603EB
:10069000001A81002A8300751095018100C0050CA5
:1006A0000901A1018504160100269C021A01002AF5
:1006B0009C02751095018100C005010906A1018504
:1006C00005050719E029E715002501950875018141
:1006D0000205081901290595057501910295017515
:1006E0000391010507190029EF1500250195F07503
:1006F000018102C005010906A101050719E029E7EA
:100700001500250195087501810295017508810183
:1007100005081901290595057501910295017503D3
:1007200091010507190029FF150026FF00950675A0
:10073000088100C011241FBECFEFDAE0DEBFCDBFBD
:1007400004B603FE27C08091870290918802A09191
:100750008902B0918A028730904BA740B04BD1F408
:1007600010928702109288021092890210928A02D7
:1007700014BE84B7877F84BF0FB6F894A895809184
:100780006000886180936000109260000FBEE0E01E
:10079000F8E3099511E0A0E0B1E0E2E3F8E502C07A
:1007A00005900D92A232B107D9F722E0A2E2B1E0A2
:1007B00001C01D92A738B207E1F70E94DF250C9413
:1007C000172C0C940000FF93EF93E0912201F0911D
:1007D0002301309709F00995EF91FF910895FC01ED
:1007E0008591803011F0EFDFFBCF0895FF27E0E225
:1007F00030E247FF0CC0419597FF09C0EDE26095DC
:10080000709580959095611D711D811D911D27FF2B
:1008100002C0219530E350E2AA27660F771F881F98
:10082000991FAA1FA41710F0A41B63955A95A9F746
:10083000AA3008F0A95FA05DAF93F395611571052B
:100840008105910541F7ED3211F4EF93F395F2171D
:1008500018F43F93F395FBCF8F91B5DFFA95E1F74D
:100860000895E991F9918591803021F0853219F050
:10087000AADFF9CF089520E0E89455915532C1F3ED
:10088000503311F4689455915A3348F4505390F30F
:10089000220F022E220F220F200D250FF4CF0EF46F
:1008A000219589919991533619F3533729F153358D
:1008B00059F1BC0188279927E8945C3621F4899185
:1008C000999168945591543639F446EF7EF077FF4C
:1008D0000DC08FEF9FEF0AC055374AE039F0583509
:1008E00040E121F0523642E009F00895FF93EF9382
:1008F0007DDFEF91FF91B7CFFF93EF93FC018191E3
:100900008030B9F360DFFBCFFF93EF9368DFF1CF67
:10091000DF93CF93CDB7DEB72596A3DFCF91DF91DD
:10092000089580B38C7080BB81B38C7081BB0C94B4
:10093000030784B1807F84B985B18F6085B98AB19E
:10094000837F8AB98BB18C608BB93E98469A0C94A0
:100950004907089508950C94AA0480E885BF85BFCF
:100960000E9491040E949904E8E7F1E084E291E09A
:100970001192119220E030E0DC01A20FB31F1C9213
:100980002F5F3F4F2E303105B9F70E9621E08837A3
:10099000920771F70C9447090E9491040E949904F0
:1009A000E8E7F1E01182108213821282158214822C
:1009B00017821682118610861386128608959EE08D
:1009C000899FB001112420E030E040E050E0A1E038
:1009D000B0E0F901E60FF71FEC5DFE4F908199231F
:1009E00019F09150908309C0CD01022E02C0880FEA
:1009F000991F0A94E2F7482B592B2F5F3F4F2E3057
:100A0000310539F7CA010895CF932EE0629FB001F6
:100A1000112420E030E0A1E0B0E0C5E0AD01022EFD
:100A200002C0440F551F0A94E2F748235923452B6F
:100A300031F0F901E60FF71FEC5DFE4FC0832F5F29
:100A40003F4F2E30310551F7CF910895CF92DF926D
:100A5000EF92FF920F931F93CF930E94250788E791
:100A6000C82E81E0D82EC0E0C33091F038F4C130F8
:100A700091F0C23099F4859A8D9812C0C43029F053
:100A8000C53061F4809A88980BC0819A899808C013
:100A9000849A8C9805C0869A8E9802C0879A8F98FF
:100AA0008C2F0E94070780EA8A95F1F78C2F0E940D
:100AB000DF047C010E947F07282F30E0369903C0B5
:100AC00080E890E002C080E090E04B9903C000E035
:100AD00011E002C000E010E0082B192B4A9903C076
:100AE00080E092E002C080E090E0082B192B1B9977
:100AF00003C040E054E002C040E050E0042B152B5E
:100B00001A9903C060E078E002C060E070E0062B54
:100B1000172B199903C080E090E102C080E090E0BB
:100B2000082B192B189903C040E050E202C040E0A6
:100B300050E0F60180819181042B152B022B132BA1
:100B40000E211F21E094F094E822F9220E291F299A
:100B50006C2F802791270E940405F60101931193C1
:100B60006F010E949104CF5FC63009F07DCF0E94D3
:100B7000C60881E0CF911F910F91FF90EF90DF9019
:100B8000CF900895E82FF0E0EE0FFF1FE858FE4FDA
:100B9000808191810895CF92DF92EF92FF920F931F
:100BA0001F93CF93DF938AE591E00E94EF0388E7DC
:100BB000E82E81E0F82EC0E0D0E095E5C92E91E066
:100BC000D92E0CE411E0DF93CF93DF92CF920E94F5
:100BD000880482E591E00E94EF03F70181919191F1
:100BE0007F010E948D1B9F938F931F930F930E94F1
:100BF00088048AE491E00E94EF0321968DB79EB7A6
:100C000008960FB6F8949EBF0FBE8DBFC630D105B3
:100C1000D1F6DF91CF911F910F91FF90EF90DF9070
:100C2000CF9008951092B9008CE08093B800089599
:100C3000EF92FF920F931F93CF93DF93182FEB0147
:100C40001092BC0084EA8093BC000E947C1D7C0151
:100C50009091BC0097FD0EC0CF3F8FEFD807C1F336
:100C60000E947C1D8E199F098C179D0788F38EEFBB
:100C70009FEF2EC09091B900987F983041F09091ED
:100C8000B900987F903119F08FEF9FEF21C010933A
:100C9000BB0084E88093BC000E947C1D8C01909175
:100CA000BC0097FD0CC0CF3F8FEFD807C1F30E9467
:100CB0007C1D801B910B8C179D0788F3D8CF8091EA
:100CC000B900887F883111F08034F1F680E090E03F
:100CD000DF91CF911F910F91FF90EF9008950F93A7
:100CE0001F93CF93DF93EB018093BB0084E8809345
:100CF000BC000E947C1D8C019091BC0097FD0EC031
:100D0000CF3F8FEFD807C1F30E947C1D801B910B52
:100D10008C179D0788F38EEF9FEF0CC02091B900D0
:100D2000287F81E090E0283211F480E090E09195F6
:100D300081959109DF91CF911F910F9108950F93A4
:100D40001F93CF93DF93EC0184E88093BC000E9453
:100D50007C1D8C019091BC0097FD0EC0CF3F8FEFA2
:100D6000D807C1F30E947C1D801B910B8C179D0737
:100D700088F38EEF9FEF03C08091BB0090E0DF917E
:100D8000CF911F910F91089584E98093BC0008953D
:100D9000109284010E9412062FEF83ED90E3215000
:100DA00080409040E1F700C0000080E008950F937C
:100DB0001F93CF93DF931F92CDB7DEB7909184013D
:100DC0009923D1F0062F182F64E670E080E40E948A
:100DD000180681110CC064E670E0812F0E946F0636
:100DE000811105C064E670E0802F0E946F06898340
:100DF0000E94C406898101C080E00F90DF91CF91ED
:100E00001F910F9108956FE381E00C94D70661E084
:100E100070E001C0660F8A95EAF7609581E00C9456
:100E2000D7066FE780E00E94D7066FE782E00E9456
:100E3000D7066FE78CE00E94D7066FEF81E00E9433
:100E4000D70660EC83E10C94D70664E670E080E49A
:100E50000E941806811110C00E94C406809184016E
:100E6000811116C081E0809384010E9411070E94C5
:100E70000A1589E891E00AC080918401882341F035
:100E8000109284010E940A1581E791E00C94EF030F
:100E900008950E94C8060C9425070F931F93CF93C3
:100EA000DF9390918401992321F18B01D82F64E67F
:100EB00070E080E40E941806C82F811116C064E615
:100EC00070E08D2F0E946F06C82F81110EC064E65E
:100ED00070E081E40E941806C82F811106C084E6E4
:100EE00090E00E949F06F80180830E94C4068C2F28
:100EF00001C080E0DF91CF911F910F910895CF93B2
:100F0000DF931F92CDB7DEB71982BE016F5F7F4FAF
:100F100082E10E944D0789810F90DF91CF91089562
:100F2000279A2F98259A2D9A269A2E9A249A2C9AA7
:100F3000259A2D982FEF80E792E021508040904035
:100F4000E1F700C00000269A2E982FEF80E792E08C
:100F5000215080409040E1F700C00000249A2C9876
:100F60002FEF80E792E0215080409040E1F700C0F1
:100F70000000259A2D9A2FEF80E792E021508040C3
:100F80009040E1F700C00000269A2E9A2FEF80E7EC
:100F900092E0215080409040E1F700C00000249A88
:100FA0002C9A279A2F9A259A2D98269A2E98249A29
:100FB0002C982FE782E490E1215080409040E1F7A7
:100FC00000C00000279A2F98259A2D9A269A2E9ACB
:100FD000249A2C9A08950E9490070C94A9040F93C8
:100FE0001F93CF93DF939C013A9521153F4148F51C
:100FF000EB018C0190FF03C080EEFB01099511FF0E
:1010000003C081EEFE01099512FF03C082EEFE01CE
:10101000099513FF03C083EEFE01099501151041E8
:1010200080F084EEFE01099585EEFE01099586EEBD
:10103000FE01099587EEFE01DF91CF911F910F917F
:101040000994DF91CF911F910F910895877091E0DE
:1010500001C0990F8A95EAF7892F0E94D51A0C943E
:101060000E1B877091E001C0990F8A95EAF7892FCE
:101070000E94D51A0C940E1B877091E001C0990F45
:101080008A95EAF7892F0E94DB1A0C940E1B877051
:1010900091E001C0990F8A95EAF7892F0E94DB1A27
:1010A0000C940E1BCF93DF93EC01805E910908979F
:1010B00010F0209719F461E378E002C066E278E06E
:1010C000CE010E94EF078C2FDF91CF910C949210EC
:1010D000CF93DF93EC010E94B011CE01805E9109A5
:1010E000089710F0209719F467E478E002C06CE3E9
:1010F00078E0CE01DF91CF910C94EF07CF93DF938F
:10110000EC010E945208CE01DF91CF910C94680847
:1011100081E0089581E008950C948A081F93CF938D
:10112000DF9300D000D01F92CDB7DEB749835A833A
:1011300020919C0189819A81211112C0662349F076
:101140000E943F1A182F682F89819A810E94E41902
:1011500003C00E94131A182F69817A81812F04C05D
:101160000E943F1A69817A810F900F900F900F9023
:101170000F90DF91CF911F910C94790AFC0140816F
:1011800051816281738184810C948E080C94AB042C
:10119000E82FE295EF70F0E032A1282F2F7081E068
:1011A00090E001C0880F2A95EAF78095832382A3F7
:1011B0000895CF92DF92EF92FF92843030F4811144
:1011C00005C090918000977F04C083E090918000DB
:1011D000986090938000282F30E0AFEFBFEF0E941F
:1011E000BB2B23E030E040E050E00E94932B2C37F3
:1011F00084E138074105510530F4C90169E070E028
:101200000E946B2B29C0DA01C9018A50974DAF4F5C
:10121000BF4F6627782F892F9A2F25EF38E241E0BC
:1012200050E00E94932B69017A01CA01B9010E9422
:101230004F2B9B01AC01C701B6010E944F2BBB276E
:10124000A92F982F872F009721E0A207B10511F051
:10125000BC0102C06FEF7FEF70938D0060938C0034
:10126000FF90EF90DF90CF900895279A87E30E9438
:10127000C8088AE08093800089E1809381008FEF25
:101280009FEF90938700809386000C941C220E940D
:10129000A71B811102C00E94401C0E9435090E94B8
:1012A0003B0D0C94EB07282F2F7041F0822F90E01C
:1012B0002A3010F44D9608950697089587E290E03D
:1012C000089508950C9461090C94620908950E9490
:1012D0000A150E9466092FEF84E39CE021508040AC
:1012E0009040E1F700C000000C94D81D0F931F93AD
:1012F000CF93DF938C010E94BE08EC01B8010E94DD
:101300008C08882309F4EAC0B801CE010E94D80DE8
:10131000882309F4E3C0B801CE010E94770E882328
:1013200009F4DCC0C531FCE5DF0708F087C0C23036
:101330008CE5D80708F452C0F8018281882309F4AB
:1013400054C00E94A71B811102C00E94401C0E9431
:10135000C41B90E09093780280937702FE01E350E3
:10136000FC45E231F10530F4EA5AFF4F80917702F3
:101370000C94B52B80917702816027C0826025C0D4
:10138000846023C0806121C080621FC080641DC052
:1013900080681BC08460886018C08E7F16C08D7FF7
:1013A00014C08B7F12C08F7E10C08F7D0EC08F7BCC
:1013B0000CC08F770AC08B7F877F07C087FB2227EF
:1013C00020F991E0922790FB87F980937702809132
:1013D00077020E94C81B0E940A1580C0C115ECE567
:1013E000DE0751F0C130DC4579F0C801DF91CF91C3
:1013F0001F910F910C948808F801C281CC2309F445
:101400006EC00E9467096AC0F801C281CC2309F44A
:1014100066C080913902C82FC095C170C0FB80F9A9
:1014200080933902CC2329F089EA93E00E94EF03EC
:1014300055C087E993E00E94EF0351C0CC3D8CE595
:10144000D80739F4F801C281CC2309F448C080E000
:101450000DC0CD3DECE5DE0760F0CD3D8CE5D80755
:1014600099F5F801C281CC23D1F182E00E94872650
:1014700035C0C631DC4509F0B8CF0E94BF1A282F0D
:10148000F80182814091000150910101882379F097
:101490002A7A91E009F490E090938501911102C0BD
:1014A00069E201C065E3CA010E94C91C0AC08091BB
:1014B0008501811102C069E201C065E3CA010E9491
:1014C000D41C0E940E1B0AC0CE3DDC4509F08DCF16
:1014D000F801C281CC2319F00E94401CC0E08C2F7F
:1014E000DF91CF911F910F91089580E090E00895D2
:1014F00008959EE0799FF001112494E5899FE00D05
:10150000F11D1124E60FF11DEE0FFF1FE156FE4FF6
:10151000859194910895880F991FFC01E654FC4F22
:10152000859194910895CF93DF930E94790A0E9448
:10153000860CEC01811521E5920708F042C0811567
:1015400060E5960708F031C1883E910500F5803EC0
:10155000910508F0D7C1883A910570F4853A910554
:1015600008F0A6C08130910509F4CCC108F47DC112
:10157000049708F0C7C179C18F3B910508F4A3C057
:10158000803C910508F471C1805C9109FDC0C115D2
:1015900080E3D80780F4C11590E2D90708F0F2C0C3
:1015A000C03FD10508F461C1CF3FD10511F008F06B
:1015B000A9C1D065A7C1C11520E4D20708F0F2C0C7
:1015C000E7C0811569E5960760F5C11588E5D8077C
:1015D00008F037C1C11594E5D90778F4C11523E5A2
:1015E000D20708F013C1C11562E5D60708F0F8C0AC
:1015F000DC2FCC27C16FD06A85C1C11585E5D8071E
:1016000008F41AC1C11596E5D90708F02EC18C2F30
:101610000E94030D8F71C82FD0E0DC2FCC27D06241
:1016200071C18D3B2CE5920709F416C1F0F4CB3B58
:101630008CE5D80709F40AC108F00BC1C1152AE5E9
:10164000D20708F012C18C2F8F700E94030D94E016
:10165000D695C7959A95E1F7CF70D0E0DC2FCC27CF
:10166000D06A8F70806EC82B4DC1803C9C4509F4B8
:10167000F9C0C13C8CE5D80760F4CE3B9CE5D907A6
:1016800009F4EDC0CF3BDC4509F0EFC0C0E0D2ED7E
:1016900039C1CE0190568115904208F0E6C08D2FD9
:1016A0008F710E94030DDD27D0628F71D82B2AC164
:1016B000853A910509F4DCC0863A910509F0DBC052
:1016C000C2E8D0E41FC1883A910509F4D7C0893A2D
:1016D000910509F4D6C08A3A910509F4D5C08B3A30
:1016E000910509F4D4C08C3A910509F4D3C08B3B21
:1016F000910509F4D2C08C3B910509F4D1C08D3A13
:10170000910509F4D0C0803B910509F4CFC08E3A11
:10171000910509F4CEC08F3A910509F4CDC0813B03
:10172000910509F4CCC0823B910509F4CBC0833B01
:10173000910509F4CAC0843B910509F4C9C0853BF1
:10174000910509F4C8C0863B910509F4C7C0873BE1
:10175000910509F4C6C0883B910509F4C5C0893BD1
:10176000910509F4C4C08D3B910509F4C3C08E3BBB
:10177000910509F4C2C08A3B910509F4C1C0C0E0DB
:10178000D4E4C0C0CE019F700E948B0AEC01BAC0A5
:10179000CE019927D3FF03C0EC01D86CB3C0EC0194
:1017A000D06CB0C0DF70D06AADC0837021E030E093
:1017B00002C0220F331F8A95E2F73C68CE0174E025
:1017C000969587957A95E1F78370382BCF70C695FB
:1017D000C69580E2C89FE0011124C22BD32B92C092
:1017E0004C2F4695469590E2499FA0011124C37065
:1017F000DD2721E030E0C90102C0880F991FCA959A
:10180000E2F7EC01C42BD52BDC687CC04C2F46954D
:10181000469580E2489FA0011124C370DD2721E096
:1018200030E0C90102C0880F991FCA95E2F7EC01A8
:10183000C42BD52BDA6866C0DC2FCC27C46FD06AE6
:1018400061C0DC2FCC27C06FD06A5CC0C0E0D4ED93
:1018500059C0C0E0D5ED56C0C0E0D1ED53C0C0E0E6
:10186000D0ED50C0C0E0D3ED4DC0C0E0D0E04AC0E4
:10187000C1E8D0E447C0C3E8D0E444C0C2EED4E439
:1018800041C0C9EED4E43EC0CAEED4E43BC0C5EBCF
:10189000D4E438C0C6EBD4E435C0C3EBD4E432C0E2
:1018A000C4EBD4E42FC0C7EBD4E42CC0CCECD4E41C
:1018B00029C0CDECD4E426C0C3E8D5E423C0CAE8EF
:1018C000D5E420C0C2E9D5E41DC0C4E9D5E41AC0FE
:1018D000C1E2D6E417C0C3E2D6E414C0C4E2D6E441
:1018E00011C0C5E2D6E40EC0C6E2D6E40BC0C7E222
:1018F000D6E408C0CFE6D4E405C0C0E7D4E402C013
:10190000CAE2D6E4CE01DF91CF91089582389105E5
:1019100049F1B0F48133910509F458C048F4893293
:10192000910509F44EC08A32910509F454C0089516
:101930008533910509F440C08933910599F00895E4
:10194000833E910529F138F4803E910591F0823E65
:101950009105A1F00895863E9105F9F0873E910525
:1019600031F108952091770220FD3AC021FD38C061
:1019700008958091770280FD35C032C08091770252
:1019800082FF32C08091770284FD30C083EE39C07F
:101990008091770282FD28C0F5CF8091770283FF86
:1019A00027C08091770284FD21C087EE2AC08091F4
:1019B000770283FD1DC0F5CF8091770285FD1AC0A7
:1019C0001BC08091770285FD17C014C080917702FB
:1019D00086FD14C015C08091770286FD11C00EC02F
:1019E00080EE0FC089E30DC082EE0BC080E009C01D
:1019F00086EE07C089E205C085E303C08AE201C024
:101A000081E390E008959091770292FF0DC0282F16
:101A10002871283019F4877F846006C0282F24712C
:101A2000243011F48B7F886093FF0DC0282F28711C
:101A3000283119F4877E846106C0282F247124314F
:101A400011F48B7E886194FD877E0895CF93DF9398
:101A500097FF0DC0FB012281222349F0EC010E9477
:101A60007A0DCE019F770E94BB0D0E94A40D81E0EC
:101A7000DF91CF9108958CE090E00E94D52B90E00B
:101A8000A0E0B0E080936C0290936D02A0936E0290
:101A9000B0936F028091390280FF0EC080916C027A
:101AA0001F928F9389ED93E09F938F930E948804F8
:101AB0000F900F900F900F90089560916C028CE042
:101AC00090E00C94E32B80936C020E945D0D80915A
:101AD000390280FF0EC080916C021F928F938AEBB7
:101AE00093E09F938F930E9488040F900F900F9024
:101AF0000F9008950E94BF1A809370020E94D21A1C
:101B000080916C02813071F048F0823081F0843035
:101B1000A1F486EE0E94181288E10DC082EE0E94A8
:101B200092100BC088E193E00E947E0806C082EE0E
:101B30000E94921087E50E9418128FE39CE901979A
:101B4000F1F700C00000089580916C02813039F0F7
:101B500040F0823031F0843051F488E206C08CE2EB
:101B600004C082EE0E94B01102C00E94181280913F
:101B700070020C94CF1A0F931F93CF93DF938C01B5
:101B8000CCE0D0E0C8010C2E02C0969587950A944F
:101B9000E2F78F700E9453090E9418122497CC3FDD
:101BA0008FEFD80779F7DF91CF911F910F910895AB
:101BB0000F931F93CF93DF93EC018B01FB01828185
:101BC000882301F1C33EFCE5DF07B9F050F4C13EC4
:101BD000ECE5DE0781F0C23EFCE5DF0799F481E029
:101BE0000FC0C43E8CE5D80751F0C53EECE5DE07DA
:101BF00049F484E005C080E003C082E001C083E0D6
:101C00000E94630DB801CE01DF91CF911F910F911A
:101C10000C94260D0F931F93CF93DF93C62FD42FD1
:101C2000022FFC0182818823C9F0609388010E9401
:101C30007C1D909387018093860180E28C0F883011
:101C400008F050C0C77081E001C0880FCA95EAF75C
:101C5000DF91CF911F910F910C942B12109188015D
:101C6000161330C080918601909187010E94881DD3
:101C7000883C910538F5C0E2CD0F1D17B9F080E220
:101C8000810F883040F4177081E001C0880F1A95E9
:101C9000EAF70E943212C83048F481E09D2F977015
:101CA00001C0880F9A95EAF70E942B12802F0E949C
:101CB0001812C830B8F4D77081E001C0880FDA95E7
:101CC000EAF70AC080E28C0F883060F4C77081E0C8
:101CD00001C0880FCA95EAF7DF91CF911F910F914C
:101CE0000C943212DF91CF911F910F9108959C01B6
:101CF000CB01203F4CE53407F9F078F4283DFCE5B2
:101D00003F07B9F0293D4CE5340711F1273D3C452B
:101D100031F526E241EE61EE1EC0223FFCE53F07B1
:101D200099F070F0233F3C45D1F427E245EE66EE92
:101D300012C027E245EE0EC026E241EE60EE0BC077
:101D400027E245EE64EE07C026E241EE62EE03C0F4
:101D500028E241E065EE0E940A0E80E00895FC0151
:101D60008281882319F010928801089581E00895F6
:101D700090938E0180938D010895E0918D01F091F3
:101D80008E01309721F00190F081E02D099480E0E0
:101D90000895EF92FF921F93CF93DF93FC01A091E0
:101DA0008D01B0918E01109709F442C0809111010C
:101DB000882341F08091770287FF04C0808181836E
:101DC00085E08083EF011296ED91FC911397CE018F
:101DD00009958091390282FF2BC080FF04C081E009
:101DE00094E00E94EF0318E08BEFE82E83E0F82EDA
:101DF0008091390280FF0BC088811F928F93FF92E0
:101E0000EF920E9488040F900F900F900F90115046
:101E100021961111EDCF8091390280FF09C089EF21
:101E200093E0DF91CF911F91FF90EF900C94EF031F
:101E3000DF91CF911F91FF90EF900895E0918D0178
:101E4000F0918E01309739F022E0DC012C93048070
:101E5000F581E02D0994089520918B0130918C013A
:101E60008217930771F090938C0180938B01E0911E
:101E70008D01F0918E01309721F00680F781E02DE1
:101E8000099408952091890130918A01821793075E
:101E900071F090938A0180938901E0918D01F09116
:101EA0008E01309721F00084F185E02D099408958A
:101EB00085B7806885BF85B7806885BF0895089518
:101EC00008950C94600F08950C94630F0E94580FAE
:101ED0000E945F0F0C94610F81E008950E94731DB2
:101EE0000E94AD040E94481E0E941C220C94640FA4
:101EF000CF93C82F8091390282FF1EC080FF04C09B
:101F00008AE194E00E94EF038091390280FF0CC0C7
:101F10001F92CF9385E194E09F938F930E94880452
:101F20000F900F900F900F908091390280FF04C0A6
:101F300083E194E00E94EF038C2FCF910C9464090D
:101F40004F925F927F928F929F92AF92BF92CF9269
:101F5000DF92EF92FF920F931F93CF93DF93CDB752
:101F6000DEB72A970FB6F894DEBF0FBECDBF0E9432
:101F700026050E946C0F811111C08FEF89838A831F
:101F80001B820E947C1D8160782F9D838C834981F8
:101F90005A816B818D810E945E1057C090E9C92ED5
:101FA00091E0D92E00E010E0AA24A394B12C702E69
:101FB000802F0E94C2054C01F601419051906F01A3
:101FC000482659264114510431F40F5F1F4F063043
:101FD000110569F7D2CF8091390281FD0E94CB05AE
:101FE00020E030E07501022E02C0EE0CFF1C0A94C6
:101FF000E2F7C70184219521892B09F12E837F8285
:102000008E209F2091E0892809F490E098870E9413
:102010007C1D8160782F9A8789874E815F816885D2
:102020008A850E945E10000F111FF801E057FE4FD5
:1020300080819181E826F926F182E08206C02F5F37
:102040003F4F2E30310571F6C0CF0E94752110919F
:102050008F010E94BD0E1817D9F00E94BD0E80930B
:102060008F012A960FB6F894DEBF0FBECDBFDF9169
:10207000CF911F910F91FF90EF90DF90CF90BF9085
:10208000AF909F908F907F905F904F900C94780FBF
:102090002A960FB6F894DEBF0FBECDBFDF91CF9169
:1020A0001F910F91FF90EF90DF90CF90BF90AF9076
:1020B0009F908F907F905F904F900895CF93DF9384
:1020C000CDB7DEB72B970FB6F894DEBF0FBECDBFEE
:1020D0004F83588769877A878B87DE01119686E060
:1020E000FD0111928A95E9F785E0FE01379601908E
:1020F0000D928A95E1F749815A816B817C818D81AE
:102100009E810E94B4172B960FB6F894DEBF0FBEC7
:10211000CDBFDF91CF910895FC01808191810E9414
:10212000801A0895882309F41AC18238C1F40E94E4
:10213000BD0E81FD14C169E3809100019091010100
:102140000E94C91C0E940E1B2FEF81EE94E02150CB
:1021500080409040E1F700C0000069E319C0833877
:10216000F9F40E94BD0E80FDFAC063E58091000184
:10217000909101010E94C91C0E940E1B2FEF81EE5D
:1021800094E0215080409040E1F700C0000063E5FA
:1021900080910001909101010E94D41C0C940E1BAF
:1021A0008438C1F40E94BD0E82FDD9C067E48091DD
:1021B0000001909101010E94C91C0E940E1B2FEF8B
:1021C00081EE94E0215080409040E1F700C0000093
:1021D00067E4DECF9CEF980F913A40F4682F80912E
:1021E0000001909101010E94C91CD8CF90E2980F84
:1021F000983050F4877091E001C0990F8A95EAF702
:10220000892F0E94C21ACACF9BE5980F933070F4B1
:10221000853A29F0863A31F083E890E005C081E8FC
:1022200090E002C082E890E00C942C0F98E5980FA3
:10223000973108F08EC0883A09F445C0893A09F40C
:1022400045C08A3A09F445C08B3A09F445C08C3A36
:1022500009F445C08B3B09F445C08C3B09F445C0EB
:102260008D3A09F445C0803B09F445C08E3A09F423
:1022700045C08F3A09F445C0813B09F445C0823B13
:1022800009F445C0833B09F445C0843B09F445C0CB
:10229000853B09F445C0863B09F445C0873B09F4FA
:1022A00045C0883B09F445C0893B09F445C08D3BD6
:1022B00009F445C08E3B09F445C08A3B09F445C08A
:1022C00080E090E044C082EE90E041C089EE90E072
:1022D0003EC08AEE90E03BC085EB90E038C086EBD4
:1022E00090E035C083EB90E032C084EB90E02FC0EB
:1022F00087EB90E02CC08CEC90E029C08DEC90E056
:1023000026C083E891E023C08AE891E020C082E9FA
:1023100091E01DC084E991E01AC081E292E017C00B
:1023200083E292E014C084E292E011C085E292E080
:102330000EC086E292E00BC087E292E008C08FE612
:1023400090E005C080E790E002C08AE292E00C9441
:10235000420F803F20F00E94FB1F0C94E82008955C
:10236000882309F464C0823879F40E94BD0E81FF8D
:102370005EC069E380910001909101010E94C91C37
:102380000E940E1B69E310C08338B1F40E94BD0E99
:1023900080FF4DC063E580910001909101010E9492
:1023A000C91C0E940E1B63E5809100019091010100
:1023B0000E94D41C0C940E1B843879F40E94BD0E2C
:1023C00082FF35C067E480910001909101010E9475
:1023D000C91C0E940E1B67E4E7CF9CEF980F913A4F
:1023E00010F4682FE1CF90E2980F983050F4877086
:1023F00091E001C0990F8A95EAF7892F0E94C81AC7
:10240000D9CF9BE5980F933020F480E090E00C94B6
:102410002C0F98E5980F973120F480E090E00C9411
:10242000420F803F20F00E9463200C94E820089522
:10243000CF93C82F0E949210C93349F42FEF87EE33
:1024400093E0215080409040E1F700C000008C2FC5
:10245000CF910C94B011882321F00E94C21A0C94E1
:102460000E1B0895882321F00E94C81A0C940E1B9D
:1024700008954F925F926F927F92BF92CF92DF92B8
:10248000EF92FF920F931F93CF93DF937C01062F60
:10249000C72FFC01158112951F70D281D1110E94A6
:1024A000E21A0E94B81A882379F0DD2369F080E2ED
:1024B000800F883048F082E00E94591B0E94B81AB1
:1024C00091E0B82EB92601C0B12CCC2EC2948FE079
:1024D000C822D12CF601E859FF4F0C94B52B8C2F54
:1024E000807FCF70882311F0C295C07FDD2399F0E3
:1024F000CC2309F4C7C180E2800F883010F00111AD
:1025000004C08C2F0E94C21A03C08C2F0E94D51ABF
:102510000E940E1BB7C1802F0E94B011CC2309F47A
:10252000FAC180E2800F883010F0011104C08C2FB6
:102530000E94C81A03C08C2F0E94DB1A0E940E1B37
:10254000EAC18C2F807FCF70803211F0C295C07F9E
:10255000002319F00130C9F021C0DD2371F01123EF
:1025600041F0113031F40E94F51A8C2B0E94FB1AB5
:10257000D2C10E94F51A8C2B3EC1112319F01130E3
:1025800009F4C9C10E94041B1CC0DD2321F01230D4
:1025900008F0C1C107C01111BEC113C0DD2321F075
:1025A000111170C18C2F27C1112359F0093309F083
:1025B0007AC1FFEF27EE83E0F15020408040E1F741
:1025C00070C18C2F1EC18C2F86958695837090E0EC
:1025D000009719F0019761F09EC1DD2321F0802F53
:1025E0009C2F937002C080E090E00E942C0FA3C14A
:1025F000DD2321F0802F9C2F937002C080E090E0BB
:102600000E94420F98C1DD23F9F0053F51F0063FCB
:1026100071F0043FA9F4809171029091720281607F
:102620000BC08091710290917202826005C080910E
:102630007102909172028460909372028093710291
:10264000802F0E94FB1F1EC0053F51F0063F71F016
:10265000043FA9F480917102909172028E7F0BC0A9
:1026600080917102909172028D7F05C080917102FC
:10267000909172028B7F9093720280937102802FEF
:102680000E9463200E94E82056C18C2F837009F0BD
:102690004BC0D1114CC1202F229526952770220FB7
:1026A000220F602F6F70862F90E0A0E0B0E02C0129
:1026B0003D01022E04C0440C551C661C771C0A9474
:1026C000D2F704FF10C08FE090E0A0E0B0E004C0BB
:1026D000880F991FAA1FBB1F2A95D2F78095909546
:1026E000A095B09503C080E090E0DC01C695C6954A
:1026F000C370D0E0BC01CD016429752986299729D2
:10270000C230D10559F0C330D10559F0219719F0E5
:102710000E94F9180CC10E94E71809C10E940B1908
:1027200006C10E94E51803C1DD2319F08C2F8170CA
:1027300001C08695882309F4FAC0202F229526959A
:102740002770220F220F602F6F70862F90E0A0E07D
:10275000B0E02C013D01022E04C0440C551C661C47
:10276000771C0A94D2F704FF10C08FE090E0A0E03D
:10277000B0E004C0880F991FAA1FBB1F2A95D2F78B
:1027800080959095A095B09503C080E090E0DC0125
:10279000C695C695C370D0E0BC01CD0164297529EA
:1027A00086299729C230D10559F0C330D10559F097
:1027B000219719F00E94BF19BAC00E94AD19B7C085
:1027C0000E94D119B4C00E942019B1C0802F90E09E
:1027D000FC01E05EF109E531F10508F04FC0E85871
:1027E000FF4F0C94B52B0F708C2F8F71DD2331F0C0
:1027F0000E944619802F0E942B128DC00E946719DB
:10280000802F0E94321287C0DD2339F0111183C05E
:102810008C2F8F710E948C197EC0123008F07BC003
:10282000F7CFDD2339F08C2F8F710E94461973C0CA
:10283000DD23C9F38C2F8F710E9467196CC0DD23D3
:1028400029F08C2F8F710E94311965C00E942C19BC
:1028500062C0DD2349F0CF718C2F0E94461963E0DE
:102860008C2F0E94441B57C081E00E94591B1230DC
:1028700008F451C082E00E94591B4DC0DD2331F0A5
:10288000112389F2802F0E94921045C0112391F2EA
:10289000093349F49FEFE7EEF3E09150E040F04058
:1028A000E1F700C00000802F0E94B01134C04C2F0F
:1028B0004F70602FC7010E94750A0E9458183BC0D4
:1028C000D11139C0CF70D0E0C230D10599F03CF4BD
:1028D000209769F02197F9F40E9475222CC0C4302A
:1028E000D10571F054F02597B1F480E00AC00E9440
:1028F0003D2221C00E94E9221EC00E9405231BC068
:1029000083E00E94432317C04C2F4F70602FC701F4
:102910000E94780A10C028E0C216D10441F05CF091
:102920009AE0C91AD108E2E0CE16D10420F40E9440
:10293000BD0E0E946409BB20F1F00E94B41A80FD14
:102940001AC0F70112820E94AE1A0E944619C701EE
:102950000E94C9140E94AE1ADF91CF911F910F916E
:10296000FF90EF90DF90CF90BF907F906F905F903F
:102970004F900C946719DF91CF911F910F91FF90A9
:10298000EF90DF90CF90BF907F906F905F904F90CF
:1029900008950F931F93CF93DF93EC018881998162
:1029A0002B813C81232BB9F09F3F11F48F3F99F08D
:1029B000CE010E947609882371F0688179818A812D
:1029C0000E948B1A8C010E94E3190E94E418B8013E
:1029D000CE010E943912DF91CF911F910F9108957E
:1029E0000E94E21A0E94F21A0E940E1B0E941022FC
:1029F0000E94E82080E090E00E942C0F80E090E0B0
:102A00000C94420F80910001909101010E94DF1C03
:102A10000C94F0140E94D21A0C940215E92FE2953E
:102A2000EF70F0E03297EE30F105B0F4E357FF4F6E
:102A30000C94B52B803F91F018F4803E68F40EC0E2
:102A4000843F51F40BC0803E48F0813F29F406C01A
:102A500093FB882780F9089580E0089581E0089528
:102A60000E94801A0E940E150895CF93DF9300D024
:102A700000D01F92CDB7DEB70F900F900F900F9040
:102A80000F90DF91CF910895CF93DF9300D000D0C6
:102A900000D0CDB7DEB726960FB6F894DEBF0FBED6
:102AA000CDBFDF91CF9108951F93CF93DF93C09156
:102AB0009D0116E080919E01C81799F0D0E01C9FFF
:102AC000F0011D9FF00D1124E156FE4F4081518110
:102AD00062817381848195810E9444152196C7701B
:102AE000E9CFDF91CF911F9108954091CF0150918F
:102AF000D0016091D1017091D2018091D301909168
:102B0000D4010C9444158091D40182958F7009F002
:102B100054C08091D101882309F44FC080919D0158
:102B2000A0919E016091CF017091D0014091D2019E
:102B30005091D301B6E08A1709F43FC090E04115E7
:102B40005105C1F17F3F11F46F3FA1F1B89FF00132
:102B5000B99FF00D1124E156FE4F218172132AC056
:102B60002081621327C02281211124C02381348156
:102B70002417350710F421503109241B350B283C4C
:102B80003105C0F42091D4012F7020612093D4012D
:102B900026E0289FF001299FF00D1124EC55FE4FEF
:102BA00080818F70806180838FEC91E00E94C914D6
:102BB0000C94541501968770BECF0895CF92DF9282
:102BC000EF92FF920F931F93CF93DF93CDB7DEB7B2
:102BD00062970FB6F894DEBF0FBECDBF8C0185E0C3
:102BE000F801DE011D9601900D928A95E1F7D8015A
:102BF0004C9111965C91119712966C9112971396C5
:102C0000CD90DC9014973091CF017091D0018091DC
:102C1000D2019091D301009709F46BC17F3F19F461
:102C20003F3F09F466C1E090D101EE2009F4C0C035
:102C30002091D401C816D90628F0F601E81BF90B3B
:102C4000CF0104C0809590958C0D9D1DFF24F394B9
:102C5000883C910578F0F12C207F09F0C6C07C2DCE
:102C6000D98AC88A89890E9435158FEC91E00E9423
:102C7000C914B1C0822F807F09F046C0751314C0FB
:102C8000341312C0611110C02F7020612093D40141
:102C90000E9475158FEC91E00E94C9148091D401B7
:102CA000D80115968C932EC0CD2819F15F3F11F4F1
:102CB0004F3FF9F0F62E61111CC080919D012091CB
:102CC0009E0136E0821709F45AC090E0389FF00167
:102CD000399FF00D1124E156FE4F7181571306C044
:102CE0007081471303C07281711103C00196877010
:102CF000E9CFF62E662309F427C18091D4018160C3
:102D00008093D401F12C20C1751308C0341306C080
:102D1000611104C08091D401D801C3C04D875E8782
:102D20008D859E856A8B0E9430156A898823E1F122
:102D30006623D1F12091D401822F82958F7090E08B
:102D4000029774F08091CF019091D00198878F8382
:102D50001986DB86CA862C87CE0107960E94C91485
:102D600086E0F801AFECB1E001900D928A95E1F7B1
:102D70000E9483150E947515FF24F394E5C04D87CA
:102D80005E878D859E850E94801A292F22952F703F
:102D900030E0223031050CF0CBC09F7009F0C5C087
:102DA000805E883008F4D0C0C8010E94C914E4CF06
:102DB000C816D90608F453C0F601E81BF90BCF0179
:102DC000883C910508F450C0F12C7C2DD98AC88A22
:102DD00089890E943515EFECF1E086E0DF011D9254
:102DE0008A95E9F70E947515AFC0751314C03413A6
:102DF00012C0611110C08091D401F8018583C8010F
:102E00000E94C91486E0EFECF1E0DF011D928A9583
:102E1000E9F7FE2C99C04D875E878D859E856A8B6C
:102E20000E9430156A89882309F4BECF662309F40D
:102E3000BBCF2091D401822F82958F7090E00297B2
:102E40000CF48ECF8091CF019091D0019A83898329
:102E50001B82DD82CC822E83CE0101967FCF8095AE
:102E600090958C0D9D1DACCFF62E662309F49CCF5A
:102E700075132EC034132CC02091D40120FD1FC027
:102E8000822F82958F70D9F0D80115962C931597C3
:102E90008F3049F08F5F982F9295907F822F8F709F
:102EA000892B15968C93C8010E94C91486E0F801FD
:102EB000AFECB1E001900D928A95E1F793CF86E0F7
:102EC000F801AFECB1E001900D928A95E1F73CC0BA
:102ED0004D875E878D859E850E943015811140CF7C
:102EE0008091D40181608093D401C8010E94C914EB
:102EF0002BC0662309F458CF4D875E878D859E854C
:102F00000E943015F82E882309F44ECF86E0F80190
:102F1000AFECB1E001900D928A95E1F78FEC91E072
:102F20000E948C100E9483155DCF811139CF0CC097
:102F3000243031050CF038CF9F7009F431CFF801FF
:102F40009581907F09F02CCF8F2D62960FB6F89463
:102F5000DEBF0FBECDBFDF91CF911F910F91FF90CC
:102F6000EF90DF90CF9008951F93CF93DF93CDB76D
:102F7000DEB72C970FB6F894DEBF0FBECDBF4F83E0
:102F8000588769877A878B879C87CE0107960E942E
:102F9000DE15882369F08F8198852A853B85232B50
:102FA000F1F19F3F09F063C08F3F09F060C037C067
:102FB00086E0FE013796DE01119601900D928A950A
:102FC000E1F76F817885EA85FB85309741F17F3F96
:102FD00011F46F3F21F120919E0130E0C90101966B
:102FE0008770992740919D0150E08417950709F457
:102FF00047C069837A83FD83EC8396E0929FD0017A
:10300000939FB00D1124A156BE4FFE013196019041
:103010000D929A95E1F780939E010E94541516E057
:1030200080919D0190919E018917C1F1189FC00167
:10303000112481569E4F0E94DE15882379F1E0917C
:103040009D011E9FF0011124E156FE4F40815181E8
:1030500062817381848195810E94441580919D01D4
:1030600090E001968770992780939D01D9CF4F8179
:10307000588569857A858B859C850E944415CFCFBC
:103080000E940A1510929E0110929D01EFECF1E052
:1030900086E0DF011D928A95E9F7C1CF2C960FB625
:1030A000F894DEBF0FBECDBFDF91CF911F91089581
:1030B000EF92FF920F931F93CF93DF938C01892B95
:1030C00009F46CC0F12CEE24E394E8012196F80198
:1030D0008491843740F4843008F051C0813081F00D
:1030E000823019F15BC0853709F444C0A8F19CE730
:1030F000980F903708F052C08F770E94B01141C0EE
:103100000E5F1F4FFE01C49180E28C0F883048F49F
:10311000C7708E2D01C0880FCA95EAF70E94E51A84
:1031200014C08C2F0E9492102DC00E5F1F4FFE0105
:10313000C49180E28C0F883058F4C7708E2D01C086
:10314000880FCA95EAF70E94EB1A0E940E1B1AC05C
:103150008C2F0E94B01116C00E5F1F4FFE01C4914C
:10316000CC2381F08FE99FE00197F1F700C00000C8
:10317000C150F6CF0E5F1F4FFE01F49003C00E94B6
:1031800092108E018F2D882309F49FCFEFE9FFE085
:103190003197F1F700C000008150F5CFDF91CF915A
:1031A0001F910F91FF90EF90089508950C94D518FA
:1031B0000E94D6186093100270931102809312023D
:1031C000909313020C94F01408950C94D8180F9354
:1031D0001F93009110021091110220911202309160
:1031E0001302602B712B822B932B1F910F910C9448
:1031F000D8180F931F930091100210911102209183
:1032000012023091130260237123822393231F91B2
:103210000F910C94D8180F931F93009110021091E6
:103220001102209112023091130260277127822728
:1032300093271F910F910C94D81808950C941D1981
:103240000E941E1960930C0270930D0280930E026F
:1032500090930F020C94F01460E070E0CB010C949A
:1032600020190F931F9341E050E060E070E08A0165
:103270009B0104C0000F111F221F331F8A95D2F734
:10328000C901B8011F910F910C9420190F931F933E
:1032900041E050E060E070E004C0440F551F661F3D
:1032A000771F8A95D2F780910C0290910D02A09120
:1032B0000E02B0910F028A019B01082B192B2A2BB9
:1032C0003B2BC901B8011F910F910C9420190F934A
:1032D0001F9341E050E060E070E004C0440F551FD0
:1032E000661F771F8A95D2F7409550956095709527
:1032F00080910C0290910D02A0910E02B0910F02EC
:103300008A019B01082319232A233B23C901B80101
:103310001F910F910C9420190F931F9341E050E0DF
:1033200060E070E004C0440F551F661F771F8A9548
:10333000D2F780910C0290910D02A0910E02B091F3
:103340000F028A019B01082719272A273B27C90159
:10335000B8011F910F910C9420190F931F930091A6
:103360000C0210910D0220910E0230910F02602B81
:10337000712B822B932B1F910F910C9420190F937B
:103380001F9300910C0210910D0220910E023091BA
:103390000F0260237123822393231F910F910C94BA
:1033A00020190F931F9300910C0210910D02209190
:1033B0000E0230910F0260277127822793271F91F9
:1033C0000F910C94201908952EE0929F800D1124E6
:1033D000A82FA695A695A695877051E001C0550F18
:1033E0008A95EAF785E0A89FD001112420E030E01B
:1033F00070E0F901EA0FFB1FEB52FE4F4081CB0159
:10340000022E02C0969587950A94E2F7817099275B
:10341000819584278523842780832F5F3F4F253024
:10342000310539F708952EE0929F800D1124682F01
:10343000669566956695982F977085E0689FB001B0
:10344000112440E050E080E0FA01E60FF71FEB5254
:10345000FE4F208130E0092E02C0369527950A9450
:10346000E2F721703327042E01C0220F0A94EAF7F5
:10347000822B4F5F5F4F4530510531F70895BF9262
:10348000CF92DF92EF92FF920F931F93CF93DF9330
:103490008C01C0901002D0901102E0901202F090C6
:1034A000130280910C0290910D02A0910E02B09136
:1034B0000F02C82AD92AEA2AFB2ACFE1D0E0D70195
:1034C000C6010C2E04C0B695A795979587950A94CA
:1034D000D2F780FF07C0BC2EB8018C2F0E94930A40
:1034E000019719F4219758F7B12C8B2DDF91CF91CB
:1034F0001F910F91FF90EF90DF90CF90BF900895B4
:10350000CF93DF93EC010E943F1ABE010E94930A01
:10351000DF91CF9108951F93CF93DF93EB019091AB
:103520009C01992321F0CB010E94801A13C08823AB
:1035300049F0CB010E943F1A182F682FCE010E943C
:10354000E41904C0CB010E94131A182FBE01812F69
:103550000E94930ADF91CF911F91089580911402E8
:1035600085958595859508958091140287700895B5
:1035700090911402977081E009F480E008958091A1
:103580003802089590913802892B8093380208956B
:103590008095909138028923809338020895809312
:1035A0003802089510923802089590913702892BBD
:1035B00080933702089580959091370289238093F4
:1035C0003702089510923702089590913602892BA0
:1035D00080933602089580959091360289238093D6
:1035E00036020895109236020895809115020895CA
:1035F00008950C94F81A90911502981721F0809371
:1036000015020C94F91A089580911502882329F067
:103610001092150280E00C94F91A0895E0910001CF
:10362000F0910101809138028083E0910001F091D6
:103630000101908180913702892B8083E091000104
:10364000F0910101908180913602892B80838091D5
:103650001502882381F0E0910001F0910101908131
:10366000892B808380910001909101010E94421C6E
:1036700081110E94041B80910001909101010C9422
:10368000C90E08950C94411B98E0899F9001112464
:10369000262B209314020E944619809114028595CE
:1036A000859585950C94421B1092140280E00C9431
:1036B000421B209114028095822380931402982F3C
:1036C000977079F430E0482F082E000C550B241722
:1036D000350739F08595859585950E9467190C9475
:1036E000541B08959093230180932201089582959D
:1036F000982F9C7C392F36953695282F237344E0DC
:10370000249FC0011124932F982B292F2A7A2695C4
:10371000892F8575880F822B08951F93CF93DF9390
:103720001F92CDB7DEB799830E94771B182F99811E
:10373000892F0E94771B212F30E0322F2227A901E9
:10374000482BCA010F90DF91CF911F91089580E01F
:1037500090E00E94DD2B21E08D3E9E4F09F020E09D
:10376000822F089582E090E00C94D52B682F82E0A0
:1037700090E00C94E32B83E090E00C94D52B682F21
:1037800083E090E00C94E32B84E090E00C94D52B44
:10379000682F84E090E00C94E32B86E090E00C949A
:1037A000D52B682F86E090E00C94E32BAB01BC0195
:1037B0008FE090E00C94F52BAB01BC0183E190E02D
:1037C0000C94F52B60E070E0CB010C94DC1B60E006
:1037D00070E0CB010E94D61B0C94E21B6DEE7EEFD5
:1037E00080E090E00E94012C60E082E090E00E9486
:1037F000E32B60E083E090E00E94E32B1092100244
:1038000010921102109212021092130260E084E0F2
:1038100090E00E94E32B60E085E090E00E94E32BC3
:1038200060E086E090E00E94E32B6FEF87E090E09D
:103830000E94E32B40E050E0BA0188E090E00E9453
:10384000F52B60E08DE090E00E94E32B40E050E03B
:10385000BA0188E190E00E94F52B60E087E190E0FA
:103860000E94E32B40E050E0BA018CE190E00E941E
:10387000F52B60E080E290E00E94E32B0C94E71BC4
:103880000C94EE1BFC01329680911101882331F0DB
:103890008091770287FF02C09EE101C096E080E040
:1038A000915028F021912223D9F38F5FF9CF089509
:1038B0009C01FC0132969FEF80E04191461789F010
:1038C0009F3F19F4411101C0982F8F5F8630A9F7EF
:1038D0009F3F39F0F901E90FF11D97FDFA956283D9
:1038E00008950895FC01329608962081261301C0A0
:1038F00010823196E817F907C1F70895262F26950B
:10390000269526952E3170F4FC01E20FF11D6770AB
:1039100021E030E001C0220F6A95EAF78281282B6E
:10392000228308958091390280FF0CC01F926F930B
:103930008BE494E09F938F930E9488040F900F90E4
:103940000F900F900895262F2695269526952E31B7
:1039500078F4FC01E20FF11D677021E030E001C056
:10396000220F6A95EAF72095828128232283089501
:103970008091390280FF0CC01F926F938DE294E01A
:103980009F938F930E9488040F900F900F900F9039
:10399000089520911101222329F02091770227FD1B
:1039A0000C947E1C0C94581C20911101222329F0A8
:1039B0002091770227FD0C94A31C0C94721C20917B
:1039C0001101FC013296222331F08091770287FFAA
:1039D00002C08EE101C086E0DF011D928A95E9F701
:1039E000089508950C94F11C0E94F21C80917E02AF
:1039F000843061F110923A0220E488E190E00FB641
:103A0000F894A895809360000FBE2093600080E03A
:103A10000E94D90880E00E9464090E94F21C83B7CA
:103A2000817F846083BF83B7816083BF78948895EA
:103A300083B78E7F83BF0FB6F894A89580916000FE
:103A4000886180936000109260000FBE0895089511
:103A5000CF930E94CC040E9426050E94271DC0E03F
:103A60008C2F0E94C205892B29F4CF5FC630C1F785
:103A700080E001C081E0CF91089508950C943D1D30
:103A80000E940A150E941C220E94BD0E0E94640919
:103A90000C943E1D1F920F920FB60F9211248F931C
:103AA0009F93AF93BF9380913A02811113C080918D
:103AB000730290917402A0917502B09176024196C2
:103AC000A11DB11D8093730290937402A09375029F
:103AD000B0937602BF91AF919F918F910F900FBEDF
:103AE0000F901F90189582E084BD93E095BD9AEFEA
:103AF00097BD80936E0008952FB7F894809173025C
:103B000090917402A0917502B09176022FBF089532
:103B1000CF92DF92EF92FF920F931F932FB7F894FB
:103B20004091730250917402609175027091760217
:103B30002FBF6A017B01EE24FF248C0120E030E0DE
:103B4000C016D106E206F30610F4415051099A015D
:103B5000281B390BC9011F910F91FF90EF90DF9047
:103B6000CF90089578941F920F920FB60F92112460
:103B70008F939F93AF93BF93809173029091740240
:103B8000A0917502B09176020196A11DB11D80939E
:103B9000730290937402A0937502B0937602BF9162
:103BA000AF919F918F910F900FBE0F901F9018951E
:103BB00081E08093E00080E28093D8001092C900F9
:103BC0008FE19EE40197F1F700C0000087E090EBE1
:103BD000DC018093870290938802A0938902B093BE
:103BE0008A029CE088E10FB6F894A8958093600063
:103BF0000FBE90936000FFCFAF92BF92CF92DF9243
:103C0000EF92FF920F931F93CF93C0E0CC24C39405
:103C1000D12CE82EF12C8C2F0E94C2055C0100E013
:103C200010E09601002E02C0220F331F0A94E2F723
:103C30002A213B21232B31F40F5F1F4F0E3011053A
:103C400081F70AC0602F7C2F80E00E94790AE81675
:103C5000F90691F781E004C0CF5FC630E1F680E05D
:103C6000CF911F910F91FF90EF90DF90CF90BF9079
:103C7000AF900895CF93C82F8CE20E94FC1D88233B
:103C800021F08C2FCF910C94FC1D80E0CF910895F2
:103C9000CF930E94A71B811102C00E94401C80E7A5
:103CA00094E00E94EF03C5E6C15049F00E9426054A
:103CB0008FE39CE90197F1F700C00000F5CF89E69A
:103CC00094E00E94EF0389E20E943A1E81110FC125
:103CD0008AE20E943A1E81110E94401C85E00E94E7
:103CE0003A1E81110E94D81D0E94B21B8093390296
:103CF00087E00E943A1E8823A9F18BE10E943A1EB8
:103D0000882351F08091390281FB222720F991E02C
:103D1000922790FB81F90EC08EE00E943A1E882304
:103D200061F08091390282FB222720F991E09227ED
:103D300090FB82F98093390215C080E10E943A1EFF
:103D400090913902882341F093FB222720F981E0EA
:103D5000822780FB93F904C0892F809580FB90F91E
:103D600090933902809139020E94B61B0E94C41BB5
:103D700090E0909378028093770280EE0E943A1E42
:103D8000882341F080917702982F909590FB80F9DD
:103D90008093770289E30E943A1E882359F080912C
:103DA000770281FB222720F991E0922790FB81F98D
:103DB0008093770282EE0E943A1E882359F0809108
:103DC000770282FB222720F991E0922790FB82F96B
:103DD0008093770286EE0E943A1E882359F08091E4
:103DE000770283FB222720F991E0922790FB83F949
:103DF0008093770283EE0E943A1E882359F08091C7
:103E0000770284FB222720F991E0922790FB84F926
:103E10008093770285E30E943A1E882359F08091AF
:103E2000770285FB222720F991E0922790FB85F904
:103E30008093770281E30E943A1E882359F0809193
:103E4000770286FB222720F991E0922790FB86F9E2
:103E50008093770281E10E943A1E882359F0809175
:103E6000770287FB222720F991E0922790FB87F9C0
:103E700080937702809177020E94C81B87E20E949C
:103E80003A1EC82F8EE10E943A1E8111C2608FE156
:103E90000E943A1E8111C46080E20E943A1E811184
:103EA000C86081E20E943A1E8111C06182E20E94D4
:103EB0003A1E8111C06283E20E943A1E8111C064E1
:103EC00084E20E943A1E882311F0C06802C0CC230D
:103ED00029F08C2F0E94BF1B6C2F03C00E94BB1BBC
:103EE000682F70E080E090E0CF910C94E518CF91BE
:103EF000089580913F0280FF0BC06091050185E02D
:103F0000689FB001112475956795759567952BC0CD
:103F100081FF09C06091050185E0689FB00111240F
:103F20007595679520C082FF07C06091050185E007
:103F3000689FB001112417C090913E029923D1F0DF
:103F400060910401961788F72091050185E0289F6C
:103F500090011124929FA001939F500D112470E0B5
:103F6000CA010E947F2B6038710540F4611571050C
:103F700039F002C065E070E0862F08958FE708955C
:103F800081E0089580913F0280FF08C060910301A5
:103F900070E0759567957595679521C081FF06C09E
:103FA0006091030170E07595679519C082FF04C0A8
:103FB0006091030170E010C090913E029923C1F01E
:103FC000609102019617A0F780910301899FC001BB
:103FD000112470E00E947F2B6038710528F4611570
:103FE000710521F0862F08958FE7089581E00895E7
:103FF00061E070E0F4CF803F21F40E94791F819549
:1040000004C0813F29F40E94791F809343020895E0
:10401000823F21F40E94791F819504C0833F29F4D7
:104020000E94791F809342020895893F19F40E94EB
:10403000C21F05C08A3F31F40E94C21F8195809340
:10404000440208958B3F21F40E94C21F819504C051
:104050008C3F29F40E94C21F809345020895843F3B
:1040600021F480914102816017C0853F21F4809145
:104070004102826011C0863F21F480914102846038
:104080000BC0873F21F480914102886005C0883FC2
:1040900031F48091410280618093410208958D3F07
:1040A00021F480913F0281600BC08E3F21F480910A
:1040B0003F02826005C08F3F29F480913F028460F7
:1040C00080933F020895803F39F48091430287FF37
:1040D0006CC01092430269C0813F29F48091430271
:1040E0001816BCF362C090914202823F29F497FFF8
:1040F0005CC01092420259C0833F19F41916CCF3E8
:1041000054C0893F41F48091440218160CF04DC010
:10411000109244024AC08A3F29F48091440287FFEA
:1041200044C0F6CF8B3F39F48091450287FF3DC0F4
:10413000109245023AC08C3F29F48091450218162E
:10414000BCF333C0843F21F4809141028E7F17C0BD
:10415000853F21F4809141028D7F11C0863F21F47B
:10416000809141028B7F0BC0873F21F480914102F7
:10417000877F05C0883F31F4809141028F7E809314
:10418000410213C08D3F21F480913F028E7F0BC00E
:104190008E3F21F480913F028D7F05C08F3F29F42F
:1041A00080913F028B7F80933F0280914202811178
:1041B0000EC08091430281110AC080914402811196
:1041C00006C080914502811102C010923E020895FE
:1041D0008091390283FF7EC08CEA94E00E94EF0355
:1041E000809141021F928F9387EA94E09F938F936F
:1041F0000E94880485EA94E00E94EF0380914202C5
:10420000282F082E000C330B3F938F9382EA94E003
:104210009F938F930E94880480EA94E00E94EF03AA
:1042200080914302282F082E000C330B3F938F936D
:104230008DE994E09F938F930E9488048BE994E02A
:104240000E94EF0380914402282F082E000C330BAC
:104250003F938F9388E994E09F938F930E94880403
:1042600086E994E00E94EF0380914502282F082EF2
:10427000000C330B3F938F9383E994E09F938F93CC
:104280000E94880480E994E00E94EF0380913E023E
:104290001F928F938DE894E09F938F930E948804E0
:1042A0008BE894E00E94EF0380913F021F928F936E
:1042B00088E894E09F938F930E94880485E894E0B7
:1042C0000E94EF038DB79EB74C960FB6F8949EBF31
:1042D0000FBE8DBF80E492E00E941E0F0E947C1DE5
:1042E00090933D0280933C0208951F93CF93DF93F8
:1042F00080913C0290913D020E94881DAC019091FA
:104300003E02992321F02091060130E006C0209161
:104310003B028AE0289F900111244217530708F4BA
:104320007BC080914202C0914302D091440210911F
:104330004502811107C0C1116BC0D11169C01111B3
:1043400067C06AC09F3F19F09F5F90933E021816A6
:1043500024F40E94791F809342028091420287FFD9
:1043600005C00E94791F8195809342021C1624F497
:104370000E94791F809343028091430287FF05C00A
:104380000E94791F8195809343023091420233232A
:10439000E1F0209143022223C1F045EB3403C00138
:1043A0001124892F990F990B009709F481E08093CC
:1043B000420235EB2303C0011124892F990F990B79
:1043C000009709F481E0809343021D1624F40E94B3
:1043D000C21F809344028091440287FF05C00E945F
:1043E000C21F819580934402111624F40E94C21FBB
:1043F000809345028091450287FF05C00E94C21F3D
:10440000819580934502DF91CF911F910C94E82014
:104410009F3F09F099CFA1CFDF91CF911F910895D0
:10442000E0E4F2E086E0DF011D928A95E9F7109260
:104430003E0210923F0208950E94A71B811102C004
:104440000E94401C0E94CD1B80937902282F269544
:104450002695269530E02430310524F08770886158
:10446000809379028091790280FF04C086958695B9
:10447000869501C080E00C94D90820917902822FA2
:10448000869586958695482F50E04330510554F423
:104490008F5F982F990F990F990F822F8770892B13
:1044A00080937902809179028160809379020E94E1
:1044B000D11B8091390280FF11C0809179028695CD
:1044C000869586951F928F9386E395E09F938F93B1
:1044D0000E9488040F900F900F900F9080917902A6
:1044E0008695869586950C94D90880917902982FA7
:1044F000969596959695A1F0915E990F990F990FC3
:104500008770892B80937902887F91E009F490E08D
:104510008091790290FB80F9809379020E94D11BEF
:104520008091390280FF11C080917902869586952D
:1045300086951F928F938EE195E09F938F930E94B3
:1045400088040F900F900F900F90809179028695BC
:10455000869586950C94D9088091790280FD1FC0BC
:10456000816080937902813019F489E08093790227
:10457000809179020E94D11B8091390280FF08C08E
:1045800086EF94E09F938F930E9488040F900F9082
:10459000809179028695869586950C94D908089520
:1045A0008091790280FF14C08E7F809379020E94EF
:1045B000D11B8091390280FF08C083EE94E09F9365
:1045C0008F930E9488040F900F9080E00C94D9087C
:1045D0000895CF93C0917902C1708091390280FF14
:1045E0000CC01F92CF9388E095E09F938F930E9419
:1045F00088040F900F900F900F90CC2319F0CF915B
:104600000C94D022CF910C94AC2290917902892FF6
:104610008695869586958F5F8F719770843038F474
:10462000880F880F880F892B8093790202C090939E
:10463000790280917902887F91E009F490E080917D
:10464000790290FB80F9809379020E94D11B8091BE
:10465000390280FF11C080917902869586958695F2
:104660001F928F938FEC94E09F938F930E94880406
:104670000F900F900F900F908091790286958695FC
:1046800086950C94D908843008F083E0880F880F51
:10469000880F909179029770892B80937902887F97
:1046A00091E009F490E08091790290FB80F9809389
:1046B00079020E94D11B8091790286958695869514
:1046C0000C94D9088091690208959FB7F8941092CC
:1046D00048029FBF90917E02943009F057C090919C
:1046E000E9009F703091EC00232F217030FD20E80D
:1046F000922B23E02093E9002091EB0020FF43C0A0
:104700002091EE0027FF3FC020914602222321F096
:104710002091E80025FF37C01092460226E0309134
:10472000E80035FD15C030917E02343061F53091DE
:10473000EB0035FD28C0215021F481E08093460232
:1047400022C0EFE9FFE03197F1F700C00000E7CFAA
:104750008093F1008091E80085FD0AC08091E80017
:1047600080FFFCCF8091E8008E778093E80006C040
:104770008FB7F89421E0209348028FBF9F709093E9
:10478000E90080E008959F709093E9008FEF08950D
:104790000F931F93CF93DF9300D01F92CDB7DEB757
:1047A0008C010E949726823011F0843021F584E03C
:1047B00089831B830A8382E08093E9008FEF9091C5
:1047C000E800815095FD06C095ED9A95F1F700003F
:1047D0008111F5CF8091E80085FF0DC040E050E0E9
:1047E00063E070E0CE0101960E94B4268091E8005B
:1047F0008E778093E8000F900F900F90DF91CF910C
:104800001F910F910895CF93DF9300D01F92CDB7E2
:10481000DEB720917E02243031F523E029838058D1
:1048200091099B838A8382E08093E9008FEF9091C6
:10483000E800815095FD06C095ED9A95F1F70000CE
:104840008111F5CF8091E80085FF0DC040E050E078
:1048500063E070E0CE0101960E94B4268091E800EA
:104860008E778093E8000F900F900F90DF91CF919B
:104870000895CF93DF93EC010E949726823011F0C8
:104880008430F9F482E08093E9009FEF8091E800A2
:10489000915085FD06C085ED8A95F1F700009111D4
:1048A000F5CF8091E80085FF0CC040E050E066E065
:1048B00070E0CE010E94B4268091E8008E7780934C
:1048C000E800DF91CF910895CF93DF93EC010E9430
:1048D0009726823011F08430D9F580911101882318
:1048E00039F08091770287FF03C060E282E002C066
:1048F00068E081E08093E9008FEF9091E8008150BB
:1049000095FD06C095ED9A95F1F700008111F5CF60
:104910008091E80085FF1CC080911101811105C0C4
:1049200040E050E068E070E003C070E040E050E03C
:10493000CE010E94B4268091E8008E778093E80033
:1049400080E2FE01A9E4B2E001900D928A95E1F7C0
:10495000DF91CF91089583E795E00E94EF03809166
:104960007D02811109C00E9449280E94A6288091D9
:10497000E20084608093E20008958FE695E00E9453
:10498000EF0310927D0208958BE695E00C94EF03FF
:1049900087E695E00C94EF0383E695E00E94EF0331
:1049A0000C94401D209147022F5F822F62E30E94EA
:1049B0005F2B992319F02093470208951092470224
:1049C00080914802882371F180917E02843041F504
:1049D0008091E9008F702091EC00922F917020FD62
:1049E00090E8892B93E09093E9009091EB0090FF81
:1049F00014C09091EE0097FF10C09091E80095FFD1
:104A000003C01092F100F9CF9091E80090FF05C02B
:104A10009091E8009E779093E8008F708093E90072
:104A200010924802089542E061EC81E00E94C327A1
:104A300042E261EC82E00E94C32742E261EC83E043
:104A40000C94C32780918002833009F460C030F455
:104A5000813071F0823009F499C008958A3009F4E8
:104A600085C08B3009F46BC0893009F0A7C020C025
:104A700080917F02813A09F0A1C08091E800877F90
:104A80008093E8008091830290918402892B21F425
:104A900060E289E492E003C060E080E090E070E0D2
:104AA0000E94FF268091E8008B778093E8000895AC
:104AB00080917F02813209F081C0809183029091C0
:104AC0008402029708F07AC08091E800877F809383
:104AD000E8008091E80082FD05C080917E0281118E
:104AE000F8CF6CC02091F3008091F20090E0922BFF
:104AF000029729F48091F1008B7F813021F480911D
:104B0000F100809369028091E8008B7753C0809117
:104B10007F02813A09F052C0809183029091840211
:104B2000892B09F04BC08091E800877F8093E800D3
:104B30008091E80080FFFCCF8091110136C0809108
:104B40007F028132D9F58091830290918402892B72
:104B5000A9F58091E800877F8093E8000E94F827FC
:104B600080918102809311010C940A1580917F023B
:104B7000813221F58091E800877F8093E8000E94D0
:104B8000F8278091820280936A02089580917F02C3
:104B9000813AA1F48091E800877F8093E8008091BA
:104BA000E80080FFFCCF80916A028093F100809141
:104BB000E8008E778093E8000C94F827089584B776
:104BC000877F84BF0FB6F894A895809160008861B4
:104BD00080936000109260000FBE80E880936100B7
:104BE000109261000E94660F0E9449280E94A62828
:104BF0008091E20084608093E20085E693E20E9467
:104C0000721B78940E94342B0E946E0F87E091E013
:104C10000E94B80E82E595E00E94EF0380917E022B
:104C2000853089F48EE495E00E94EF030E94F41C25
:104C300080917C02882391F30E94281D882371F3C0
:104C40000E949E26EBCF0E94A00FE8CF0C9428264E
:104C5000292F332723303105C9F064F42130310581
:104C600081F02230310509F049C08BE590E025EA5A
:104C700035E048C02132310521F12232310571F190
:104C80003DC082E190E020E036E03CC099278130D1
:104C9000910571F02CF4892B89F5E1EAF5E00DC05E
:104CA0008230910541F0039749F5E7E7F5E005C04B
:104CB000EDE8F5E002C0EDE7F5E0849190E09F01BA
:104CC00021C063307105D0F4660F771FFB01E55EEC
:104CD000FE4F2081318189E090E014C0633071057E
:104CE00068F4FB01EE0FFF1FEB5EFE4F2081318168
:104CF000FB01EE5EFE4F808190E004C080E090E01A
:104D000020E030E0FA013183208308950895CF93A5
:104D1000C82F0E948626C0936B02CF910895809180
:104D20007E02843011F081E0089582E00895809140
:104D30006B02811102C00C948F26089580E189BD19
:104D400082E189BD09B400FEFDCF8091D8008F7D3E
:104D50008093D8008091E00082608093E000809191
:104D6000E00081FDFCCF0895CF92DF92EF92FF9299
:104D70000F931F93CF93DF93EC018B016A010E9485
:104D80001728811133C0C114D10439F0F601808194
:104D90009181081B190BC80FD91FE12CF12C0115AB
:104DA000110519F18091E80085FD16C08091E80099
:104DB0008E778093E800C114D10449F0F601808118
:104DC0009181E80EF91EF182E08285E00FC00E9419
:104DD0001728882321F30AC089918093F10001509C
:104DE0001109FFEFEF1AFF0ADACF80E0DF91CF91D0
:104DF0001F910F91FF90EF90DF90CF900895209139
:104E00008502309186022617370748F06115710533
:104E100039F42091E8002E772093E80001C0B90111
:104E200040E061157105A9F120917E02222309F469
:104E300043C0253009F442C02091E80023FD40C062
:104E40002091E80022FD32C02091E80020FFE9CF48
:104E50004091F3002091F20030E0342BFC01CF01AF
:104E60006115710559F02830310540F48191809326
:104E7000F100615071092F5F3F4FF1CF41E02830C1
:104E8000310509F040E02091E8002E772093E800FA
:104E9000C8CF4111C9CF0AC080917E02882361F03A
:104EA000853061F08091E80083FD0AC08091E800C0
:104EB00082FFF2CF80E0089582E0089583E00895B4
:104EC00081E00895209185023091860226173707E8
:104ED00048F06115710539F42091E8002E77209390
:104EE000E80001C0B901FC0120E06115710591F1F4
:104EF00080917E02882309F440C0853009F43FC0C8
:104F00008091E80083FD3DC08091E80082FD2FC0C4
:104F10008091E80080FFE9CF2091F3008091F200BA
:104F200090E0922B6115710559F08830910540F49D
:104F300024912093F1003196615071090196F2CFCE
:104F400021E0089709F020E08091E8008E778093B7
:104F5000E800CBCF2111CCCF0AC080917E028823FC
:104F600061F0853061F08091E80083FD0AC0809196
:104F7000E80082FFF2CF80E0089582E0089583E0A8
:104F8000089581E00895982F973058F59093E9009F
:104F9000981739F07091EC002091ED005091F000DD
:104FA00003C0242F762F50E021FF19C03091EB0071
:104FB0003E7F3093EB003091ED003D7F3093ED006C
:104FC0003091EB0031603093EB007093EC00209354
:104FD000ED005093F0002091EE0027FF07C09F5F87
:104FE000D3CF8F708093E90081E0089580E0089529
:104FF00080917F0287FF11C08091E80082FD05C08B
:1050000080917E028111F8CF11C08091E8008B77EA
:105010000BC080917E02882349F08091E80080FFD8
:10502000F8CF8091E8008E778093E8000895209172
:10503000E4003091E50095E64091EC00842F81700A
:1050400040FF22C08091E80080FD1CC080917E025C
:10505000882391F0853091F08091EB0085FD10C0A0
:105060004091E4005091E5004217530729F39A015B
:10507000915011F784E0089582E0089583E0089547
:1050800081E0089580E008954091E80042FFDECF7E
:1050900008950E94B7280E94BF28E0EEF0E08081CA
:1050A00081608083E8EDF0E080818F77808319BC98
:1050B000A7EDB0E08C918E7F8C9380818F7E808372
:1050C00010927D0208950F931F93CF93DF930E9458
:1050D000B7280E94BF28C8EDD0E088818F778883E9
:1050E00088818068888388818F7D888319BC10922D
:1050F0007E0210927A0210927C0210927B0200EEE5
:1051000010E0F80180818B7F8083888181608883B3
:1051100042E060E080E00E94C327E1EEF0E08081A1
:105120008E7F8083E2EEF0E08081816080838081E9
:1051300088608083F80180818E7F80838881806190
:105140008883DF91CF911F910F910895E8EDF0E0F2
:1051500080818F7E8083E7EDF0E0808181608083B5
:1051600084E082BF81E080937D020C946328E8EDA7
:10517000F0E080818E7F80831092E200089510928B
:10518000DA001092E10008951F920F920FB60F926D
:1051900011242F933F934F935F936F937F938F933C
:1051A0009F93AF93BF93EF93FF938091E10082FFB2
:1051B0000BC08091E20082FF07C08091E1008B7FED
:1051C0008093E1000E94D2248091DA0080FF1FC00A
:1051D0008091D80080FF1BC08091DA008E7F809381
:1051E000DA008091D90080FF0DC080E189BD82E1A5
:1051F00089BD09B400FEFDCF81E080937E020E944C
:10520000AB2405C019BC10927E020E94BD2480917F
:10521000E10080FF19C08091E20080FF15C08091FD
:10522000E2008E7F8093E2008091E20080618093B3
:10523000E2008091D80080628093D80019BC85E09C
:1052400080937E020E94C8248091E10084FF30C0D8
:105250008091E20084FF2CC080E189BD82E189BD9C
:1052600009B400FEFDCF8091D8008F7D8093D800D7
:105270008091E1008F7E8093E1008091E2008F7E3B
:105280008093E2008091E20081608093E20080914F
:105290007A02882311F084E007C08091E30087FD43
:1052A00002C081E001C083E080937E020E94CC2492
:1052B0008091E10083FF29C08091E20083FF25C037
:1052C0008091E100877F8093E10082E080937E02FD
:1052D00010927A028091E1008E7F8093E1008091AC
:1052E000E2008E7F8093E2008091E20080618093F3
:1052F000E20042E060E080E00E94C3278091F0007D
:1053000088608093F0000E94C424FF91EF91BF91C8
:10531000AF919F918F917F916F915F914F913F914D
:105320002F910F900FBE0F901F9018951F920F9204
:105330000FB60F9211242F933F934F935F936F9368
:105340007F938F939F93AF93BF93CF93DF93EF930D
:10535000FF93C091E900CF708091EC00D82FD170FD
:1053600080FDD0E81092E9008091F000877F809363
:10537000F00078940E94DA291092E9008091F00000
:1053800088608093F000CD2BCF70C093E900FF912F
:10539000EF91DF91CF91BF91AF919F918F917F91CD
:1053A0006F915F914F913F912F910F900FBE0F9092
:1053B0001F9018951F93CF93DF93CDB7DEB7AA97B1
:1053C0000FB6F894DEBF0FBECDBFEFE7F2E088E086
:1053D0008E0F9091F10091938E13FBCF0E942225A6
:1053E0008091E80083FF28C180917F029091800224
:1053F000492F50E04A30510508F01EC1FA01E55628
:10540000FF4F0C94B52B803821F0823809F014C17D
:1054100008C080917B0290917C02992389F0826080
:105420000FC0809183028F70873008F005C1809390
:10543000E9008091EB0085FB882780F91092E90054
:105440009091E800977F9093E8008093F10010928C
:10545000F100D0C0282F2D7F09F0EEC0882319F06D
:10546000823061F0E9C080918102813009F0E4C0AE
:10547000933009F080E080937C022EC080918102FD
:1054800081112AC0809183028F702FEF280F263060
:1054900008F0D2C08093E9002091EB0020FF1CC0EF
:1054A000933021F48091EB00806214C09091EB0066
:1054B00090619093EB0021E030E0A90102C0440F1D
:1054C000551F8A95E2F74093EA001092EA00809116
:1054D000EB0088608093EB001092E9008091E80077
:1054E000877F8093E8000E94F827A6C08111A4C09E
:1054F000109181021F778091E3008078812B809347
:10550000E3008091E800877F8093E8000E94F827FD
:105510008091E80080FFFCCF8091E3008068809359
:10552000E300111102C082E001C083E080937E029B
:1055300083C08058823008F07FC0809181029091B2
:1055400082028C3D53E0950779F583E08A838AE2F5
:1055500089834FB7F894DE01139620E03EE051E2D4
:10556000E32FF0E050935700E49120FF03C0E29551
:10557000EF703F5FEF708E2F90E0EA3010F0C7962B
:1055800001C0C0968D939D932F5F243149F74FBF83
:105590008091E800877F8093E8006AE270E0CE01A6
:1055A00001960E94FF2615C06091830270918402CB
:1055B000AE014F5F5F4F0E942626BC01892BE1F1AF
:1055C0009091E800977F9093E80089819A810E94EA
:1055D00062278091E8008B778093E8002DC08038A7
:1055E00059F58091E800877F8093E80080917A02E6
:1055F0008093F1008091E8008E7773CF81111CC0F9
:10560000909181029230C0F48091E800877F80936E
:10561000E80090937A020E94F82780917A02811123
:1056200006C08091E30087FD02C081E001C084E0F4
:1056300080937E020E9413258091E80083FF0AC0B8
:105640008091E800877F8093E8008091EB00806282
:105650008093EB00AA960FB6F894DEBF0FBECDBFC5
:10566000DF91CF911F910895CF9380917E0288237F
:10567000A1F0C091E900CF709091EC00892F81706A
:1056800090FD80E8C82B1092E9008091E80083FD2E
:105690000E94DA29CF70C093E900CF910895DB0111
:1056A0008F939F930E94CA2BBF91AF91A29F800DB1
:1056B000911DA39F900DB29F900D11240895991BE9
:1056C00079E004C0991F961708F0961B881F7A95F9
:1056D000C9F780950895AA1BBB1B51E107C0AA1FFB
:1056E000BB1FA617B70710F0A61BB70B881F991F83
:1056F0005A95A9F780959095BC01CD01089597FB27
:10570000072E16F4009407D077FD09D00E946B2B6A
:1057100007FC05D03EF4909581959F4F08957095B4
:1057200061957F4F0895A1E21A2EAA1BBB1BFD01B4
:105730000DC0AA1FBB1FEE1FFF1FA217B307E40770
:10574000F50720F0A21BB30BE40BF50B661F771FC8
:10575000881F991F1A9469F76095709580959095A8
:105760009B01AC01BD01CF010895EE0FFF1F059015
:10577000F491E02D0994A29FB001B39FC001A39FB3
:10578000700D811D1124911DB29F700D811D11247A
:10579000911D08950E94BB2BA59F900DB49F900D65
:1057A000A49F800D911D11240895F999FECF92BDFB
:1057B00081BDF89A992780B50895A8E1B0E042E04C
:1057C00050E00C94092C262FF999FECF92BD81BD93
:1057D000F89A019700B4021639F01FBA20BD0FB62F
:1057E000F894FA9AF99A0FBE08950396272F0E940B
:1057F000E42B0E94E32B252F0E94E42B242F0C94F2
:10580000E42B0196272F0E94E42B0C94E32BDC0160
:10581000CB01FC01F999FECF06C0F2BDE1BDF89ABB
:10582000319600B40D9241505040B8F70895F89465
:02583000FFCFA8
:10583200160228083C07146223642439240324C86E
:10584200230140C022F40634061206B705D005E94A
:0258520005004F
:00000001FF
